{
  "contractName": "Snowflake",
  "abi": [
    {
      "inputs": [],
      "name": "generateId",
      "outputs": [
        {
          "internalType": "uint256",
          "name": "id",
          "type": "uint256"
        }
      ],
      "stateMutability": "nonpayable",
      "type": "function"
    }
  ],
  "bytecode": "0x608060405234801561001057600080fd5b506102bc806100206000396000f3fe608060405234801561001057600080fd5b506004361061002b5760003560e01c80636f8dcb3d14610030575b600080fd5b61003861004e565b6040516100459190610157565b60405180910390f35b600080429050600054811015610099576040517f08c379a0000000000000000000000000000000000000000000000000000000008152600401610090906101cf565b60405180910390fd5b60005481036100d457610fff600180546100b3919061021e565b166001819055506000600154036100cf576100cc61011f565b90505b6100dd565b60006001819055505b6000600a6101006100ee9190610252565b3073ffffffffffffffffffffffffffffffffffffffff16901c9050600154600c82901b601684901b17179250505090565b6000804290505b600054810361013757429050610126565b8091505090565b6000819050919050565b6101518161013e565b82525050565b600060208201905061016c6000830184610148565b92915050565b600082825260208201905092915050565b7f54696d657374616d70206d757374206e6f7420676f206261636b776172647300600082015250565b60006101b9601f83610172565b91506101c482610183565b602082019050919050565b600060208201905081810360008301526101e8816101ac565b9050919050565b7f4e487b7100000000000000000000000000000000000000000000000000000000600052601160045260246000fd5b60006102298261013e565b91506102348361013e565b925082820190508082111561024c5761024b6101ef565b5b92915050565b600061025d8261013e565b91506102688361013e565b92508282039050818111156102805761027f6101ef565b5b9291505056fea2646970667358221220b3f620676fc6645c725e0b358b60af102a0c5e47f73b1ddfe670141d5497b80f64736f6c63430008120033",
  "immutableReferences": {},
  "source": "// SPDX-License-Identifier: MIT\r\npragma solidity ^0.8.0;\r\n\r\n// This contract generates 64-bit IDs where the first 44 bits are the timestamp \r\n// in seconds since September 4th, 2021 (the \"epoch\" time), the next 20 bits are the node ID (the address of the contract), \r\n// and the final 12 bits are a sequence number that is incremented when multiple IDs are generated in the same second.\r\ncontract Snowflake {\r\n    uint256 private lastTimestamp;\r\n    uint256 private sequence;\r\n    uint256 private constant sequenceMask = 0xFFF; // 12 bits\r\n    uint256 private constant sequenceShift = 12;\r\n    uint256 private constant nodeBits = 10;\r\n    uint256 private constant nodeShift = 22;\r\n    uint256 private constant epoch = 1630761600; // 2021-09-04T00:00:00Z\r\n\r\n\r\n    function generateId() public returns (uint256 id) {\r\n        uint256 currentTimestamp = uint256(block.timestamp);\r\n        require(currentTimestamp >= lastTimestamp, \"Timestamp must not go backwards\");\r\n\r\n        if (currentTimestamp == lastTimestamp) {\r\n            sequence = (sequence + 1) & sequenceMask;\r\n            if (sequence == 0) {\r\n                // Sequence overflow, wait until next timestamp\r\n                currentTimestamp = waitForNextTimestamp();\r\n            }\r\n        } else {\r\n            sequence = 0;\r\n        }\r\n        // lastTimestamp = currentTimestamp;\r\n        // As of Solidity v0.8, you can no longer cast explicitly from address to uint256.\r\n        uint256 nodeId = uint256(uint160(address(this))) >> (256 - nodeBits);\r\n        // [1(no use)] [41bits(timestamp)] [10(node)] [12(seq)]\r\n        id = ((currentTimestamp) << nodeShift) | (nodeId << sequenceShift) | sequence;\r\n    }\r\n\r\n    function waitForNextTimestamp() private view returns (uint256) {\r\n        uint256 currentTimestamp = uint256(block.timestamp);\r\n        while (currentTimestamp == lastTimestamp) {\r\n            currentTimestamp = uint256(block.timestamp);\r\n        }\r\n        return currentTimestamp;\r\n    }\r\n\r\n\r\n}\r\n",
  "sourcePath": "/home/resyon/anonymous-survey/truffle/contracts/Snowflake.sol",
  "compiler": {
    "name": "solc",
    "version": "0.8.18+commit.87f61d96.Emscripten.clang"
  },
  "schemaVersion": "3.4.13",
  "updatedAt": "2023-03-13T13:35:11.394Z",
  "devdoc": {
    "kind": "dev",
    "methods": {},
    "version": 1
  },
  "userdoc": {
    "kind": "user",
    "methods": {},
    "version": 1
  }
}