{
  "contractName": "SurveyContract",
  "abi": [
    {
      "inputs": [],
      "stateMutability": "nonpayable",
      "type": "constructor"
    },
    {
      "inputs": [
        {
          "internalType": "bytes[]",
          "name": "data",
          "type": "bytes[]"
        }
      ],
      "name": "createAndSubmitSurvey",
      "outputs": [
        {
          "internalType": "uint256",
          "name": "",
          "type": "uint256"
        }
      ],
      "stateMutability": "nonpayable",
      "type": "function"
    },
    {
      "inputs": [
        {
          "internalType": "uint256",
          "name": "questionId",
          "type": "uint256"
        },
        {
          "internalType": "bytes[]",
          "name": "data",
          "type": "bytes[]"
        }
      ],
      "name": "createAndSubmitAnswer",
      "outputs": [
        {
          "internalType": "uint256",
          "name": "",
          "type": "uint256"
        }
      ],
      "stateMutability": "nonpayable",
      "type": "function"
    },
    {
      "inputs": [
        {
          "internalType": "uint256",
          "name": "id",
          "type": "uint256"
        }
      ],
      "name": "submitSurveyResponse",
      "outputs": [
        {
          "internalType": "bool",
          "name": "",
          "type": "bool"
        }
      ],
      "stateMutability": "payable",
      "type": "function",
      "payable": true
    },
    {
      "inputs": [
        {
          "internalType": "uint256",
          "name": "id",
          "type": "uint256"
        }
      ],
      "name": "surveyInfo",
      "outputs": [
        {
          "internalType": "address",
          "name": "",
          "type": "address"
        },
        {
          "internalType": "bytes[]",
          "name": "",
          "type": "bytes[]"
        },
        {
          "internalType": "uint256[]",
          "name": "",
          "type": "uint256[]"
        }
      ],
      "stateMutability": "view",
      "type": "function",
      "constant": true
    },
    {
      "inputs": [],
      "name": "getAllSurveys",
      "outputs": [
        {
          "internalType": "uint256[]",
          "name": "",
          "type": "uint256[]"
        },
        {
          "internalType": "address[]",
          "name": "",
          "type": "address[]"
        },
        {
          "internalType": "bytes[][]",
          "name": "",
          "type": "bytes[][]"
        }
      ],
      "stateMutability": "view",
      "type": "function",
      "constant": true
    },
    {
      "inputs": [
        {
          "internalType": "address",
          "name": "_admin",
          "type": "address"
        }
      ],
      "name": "getUserSurveys",
      "outputs": [
        {
          "internalType": "uint256[]",
          "name": "",
          "type": "uint256[]"
        },
        {
          "internalType": "bytes[][]",
          "name": "",
          "type": "bytes[][]"
        }
      ],
      "stateMutability": "view",
      "type": "function",
      "constant": true
    },
    {
      "inputs": [
        {
          "internalType": "uint256",
          "name": "id",
          "type": "uint256"
        }
      ],
      "name": "getAnswer",
      "outputs": [
        {
          "internalType": "address",
          "name": "",
          "type": "address"
        },
        {
          "internalType": "bytes[]",
          "name": "",
          "type": "bytes[]"
        }
      ],
      "stateMutability": "view",
      "type": "function",
      "constant": true
    },
    {
      "inputs": [
        {
          "internalType": "address",
          "name": "_owner",
          "type": "address"
        }
      ],
      "name": "getUserAnswers",
      "outputs": [
        {
          "internalType": "uint256[]",
          "name": "",
          "type": "uint256[]"
        },
        {
          "internalType": "bytes[][]",
          "name": "",
          "type": "bytes[][]"
        }
      ],
      "stateMutability": "view",
      "type": "function",
      "constant": true
    }
  ],
  "bytecode": "0x60806040523480156200001157600080fd5b50604051620000209062000083565b604051809103906000f0801580156200003d573d6000803e3d6000fd5b506000806101000a81548173ffffffffffffffffffffffffffffffffffffffff021916908373ffffffffffffffffffffffffffffffffffffffff16021790555062000091565b6102dc806200275383390190565b6126b280620000a16000396000f3fe60806040526004361061007b5760003560e01c8063ce7d83d61161004e578063ce7d83d614610167578063d6e8e40a146101a6578063eca7e393146101d6578063eec74c50146102135761007b565b80632af3d7ed146100805780637a1bc375146100be578063b5ab58dc146100eb578063b7e1c25a14610129575b600080fd5b34801561008c57600080fd5b506100a760048036038101906100a291906119e9565b610250565b6040516100b5929190611cf2565b60405180910390f35b3480156100ca57600080fd5b506100d3610564565b6040516100e293929190611de7565b60405180910390f35b3480156100f757600080fd5b50610112600480360381019061010d9190611e5f565b6108fb565b604051610120929190611f21565b60405180910390f35b34801561013557600080fd5b50610150600480360381019061014b91906119e9565b610add565b60405161015e929190611cf2565b60405180910390f35b34801561017357600080fd5b5061018e60048036038101906101899190611e5f565b610e49565b60405161019d93929190611f51565b60405180910390f35b6101c060048036038101906101bb9190611e5f565b610e64565b6040516101cd9190611fb1565b60405180910390f35b3480156101e257600080fd5b506101fd60048036038101906101f891906121e7565b611100565b60405161020a9190612252565b60405180910390f35b34801561021f57600080fd5b5061023a6004803603810190610235919061226d565b611401565b6040516102479190612252565b60405180910390f35b6060806000600360008573ffffffffffffffffffffffffffffffffffffffff1673ffffffffffffffffffffffffffffffffffffffff16815260200190815260200160002080549050905060008167ffffffffffffffff8111156102b6576102b5611fd1565b5b6040519080825280602002602001820160405280156102e45781602001602082028036833780820191505090505b50905060008267ffffffffffffffff81111561030357610302611fd1565b5b60405190808252806020026020018201604052801561033657816020015b60608152602001906001900390816103215790505b50905060005b8381101561055557600060026000600360008b73ffffffffffffffffffffffffffffffffffffffff1673ffffffffffffffffffffffffffffffffffffffff168152602001908152602001600020848154811061039b5761039a6122b6565b5b90600052602060002001548152602001908152602001600020604051806060016040529081600082015481526020016001820160009054906101000a900473ffffffffffffffffffffffffffffffffffffffff1673ffffffffffffffffffffffffffffffffffffffff1673ffffffffffffffffffffffffffffffffffffffff16815260200160028201805480602002602001604051908101604052809291908181526020016000905b828210156104f057838290600052602060002001805461046390612314565b80601f016020809104026020016040519081016040528092919081815260200182805461048f90612314565b80156104dc5780601f106104b1576101008083540402835291602001916104dc565b820191906000526020600020905b8154815290600101906020018083116104bf57829003601f168201915b505050505081526020019060010190610444565b505050508152505090508060000151848381518110610512576105116122b6565b5b6020026020010181815250508060400151838381518110610536576105356122b6565b5b602002602001018190525050808061054d90612374565b91505061033c565b50818194509450505050915091565b60608060606000600580549050905060008167ffffffffffffffff81111561058f5761058e611fd1565b5b6040519080825280602002602001820160405280156105bd5781602001602082028036833780820191505090505b50905060008267ffffffffffffffff8111156105dc576105db611fd1565b5b60405190808252806020026020018201604052801561060a5781602001602082028036833780820191505090505b50905060008367ffffffffffffffff81111561062957610628611fd1565b5b60405190808252806020026020018201604052801561065c57816020015b60608152602001906001900390816106475790505b50905060005b848110156108e85760006001600060058481548110610684576106836122b6565b5b90600052602060002001548152602001908152602001600020604051806080016040529081600082015481526020016001820160009054906101000a900473ffffffffffffffffffffffffffffffffffffffff1673ffffffffffffffffffffffffffffffffffffffff1673ffffffffffffffffffffffffffffffffffffffff16815260200160028201805480602002602001604051908101604052809291908181526020016000905b828210156107d957838290600052602060002001805461074c90612314565b80601f016020809104026020016040519081016040528092919081815260200182805461077890612314565b80156107c55780601f1061079a576101008083540402835291602001916107c5565b820191906000526020600020905b8154815290600101906020018083116107a857829003601f168201915b50505050508152602001906001019061072d565b5050505081526020016003820180548060200260200160405190810160405280929190818152602001828054801561083057602002820191906000526020600020905b81548152602001906001019080831161081c575b50505050508152505090508060000151858381518110610853576108526122b6565b5b6020026020010181815250508060200151848381518110610877576108766122b6565b5b602002602001019073ffffffffffffffffffffffffffffffffffffffff16908173ffffffffffffffffffffffffffffffffffffffff168152505080604001518383815181106108c9576108c86122b6565b5b60200260200101819052505080806108e090612374565b915050610662565b5082828296509650965050505050909192565b60006060600073ffffffffffffffffffffffffffffffffffffffff166002600085815260200190815260200160002060010160009054906101000a900473ffffffffffffffffffffffffffffffffffffffff1673ffffffffffffffffffffffffffffffffffffffff160361096e57600080fd5b600060026000858152602001908152602001600020604051806060016040529081600082015481526020016001820160009054906101000a900473ffffffffffffffffffffffffffffffffffffffff1673ffffffffffffffffffffffffffffffffffffffff1673ffffffffffffffffffffffffffffffffffffffff16815260200160028201805480602002602001604051908101604052809291908181526020016000905b82821015610abf578382906000526020600020018054610a3290612314565b80601f0160208091040260200160405190810160405280929190818152602001828054610a5e90612314565b8015610aab5780601f10610a8057610100808354040283529160200191610aab565b820191906000526020600020905b815481529060010190602001808311610a8e57829003601f168201915b505050505081526020019060010190610a13565b50505050815250509050806020015181604001519250925050915091565b6060806000600460008573ffffffffffffffffffffffffffffffffffffffff1673ffffffffffffffffffffffffffffffffffffffff16815260200190815260200160002080549050905060008167ffffffffffffffff811115610b4357610b42611fd1565b5b604051908082528060200260200182016040528015610b715781602001602082028036833780820191505090505b50905060008267ffffffffffffffff811115610b9057610b8f611fd1565b5b604051908082528060200260200182016040528015610bc357816020015b6060815260200190600190039081610bae5790505b50905060005b83811015610e3a57600060016000600460008b73ffffffffffffffffffffffffffffffffffffffff1673ffffffffffffffffffffffffffffffffffffffff1681526020019081526020016000208481548110610c2857610c276122b6565b5b90600052602060002001548152602001908152602001600020604051806080016040529081600082015481526020016001820160009054906101000a900473ffffffffffffffffffffffffffffffffffffffff1673ffffffffffffffffffffffffffffffffffffffff1673ffffffffffffffffffffffffffffffffffffffff16815260200160028201805480602002602001604051908101604052809291908181526020016000905b82821015610d7d578382906000526020600020018054610cf090612314565b80601f0160208091040260200160405190810160405280929190818152602001828054610d1c90612314565b8015610d695780601f10610d3e57610100808354040283529160200191610d69565b820191906000526020600020905b815481529060010190602001808311610d4c57829003601f168201915b505050505081526020019060010190610cd1565b50505050815260200160038201805480602002602001604051908101604052809291908181526020018280548015610dd457602002820191906000526020600020905b815481526020019060010190808311610dc0575b50505050508152505090508060000151848381518110610df757610df66122b6565b5b6020026020010181815250508060400151838381518110610e1b57610e1a6122b6565b5b6020026020010181905250508080610e3290612374565b915050610bc9565b50818194509450505050915091565b6000606080610e578461167b565b9250925092509193909250565b60008060016000848152602001908152602001600020604051806080016040529081600082015481526020016001820160009054906101000a900473ffffffffffffffffffffffffffffffffffffffff1673ffffffffffffffffffffffffffffffffffffffff1673ffffffffffffffffffffffffffffffffffffffff16815260200160028201805480602002602001604051908101604052809291908181526020016000905b82821015610fb6578382906000526020600020018054610f2990612314565b80601f0160208091040260200160405190810160405280929190818152602001828054610f5590612314565b8015610fa25780601f10610f7757610100808354040283529160200191610fa2565b820191906000526020600020905b815481529060010190602001808311610f8557829003601f168201915b505050505081526020019060010190610f0a565b5050505081526020016003820180548060200260200160405190810160405280929190818152602001828054801561100d57602002820191906000526020600020905b815481526020019060010190808311610ff9575b50505050508152505090503373ffffffffffffffffffffffffffffffffffffffff16816020015173ffffffffffffffffffffffffffffffffffffffff160361105457600080fd5b80600160008581526020019081526020016000206000820151816000015560208201518160010160006101000a81548173ffffffffffffffffffffffffffffffffffffffff021916908373ffffffffffffffffffffffffffffffffffffffff16021790555060408201518160020190805190602001906110d5929190611850565b5060608201518160030190805190602001906110f29291906118a9565b509050506001915050919050565b60008073ffffffffffffffffffffffffffffffffffffffff166001600085815260200190815260200160002060010160009054906101000a900473ffffffffffffffffffffffffffffffffffffffff1673ffffffffffffffffffffffffffffffffffffffff160361117057600080fd5b60005b60008054906101000a900473ffffffffffffffffffffffffffffffffffffffff1673ffffffffffffffffffffffffffffffffffffffff16636f8dcb3d6040518163ffffffff1660e01b81526004016020604051808303816000875af11580156111e0573d6000803e3d6000fd5b505050506040513d601f19601f8201168201806040525081019061120491906123d1565b9050600073ffffffffffffffffffffffffffffffffffffffff166002600083815260200190815260200160002060010160009054906101000a900473ffffffffffffffffffffffffffffffffffffffff1673ffffffffffffffffffffffffffffffffffffffff160361117357600060405180606001604052808381526020013373ffffffffffffffffffffffffffffffffffffffff16815260200185815250905080600260008481526020019081526020016000206000820151816000015560208201518160010160006101000a81548173ffffffffffffffffffffffffffffffffffffffff021916908373ffffffffffffffffffffffffffffffffffffffff1602179055506040820151816002019080519060200190611326929190611850565b50905050600360003373ffffffffffffffffffffffffffffffffffffffff1673ffffffffffffffffffffffffffffffffffffffff168152602001908152602001600020829080600181540180825580915050600190039060005260206000200160009091909190915055600682908060018154018082558091505060019003906000526020600020016000909190919091505560016000868152602001908152602001600020600301829080600181540180825580915050600190039060005260206000200160009091909190915055819250505092915050565b6000805b60008054906101000a900473ffffffffffffffffffffffffffffffffffffffff1673ffffffffffffffffffffffffffffffffffffffff16636f8dcb3d6040518163ffffffff1660e01b81526004016020604051808303816000875af1158015611472573d6000803e3d6000fd5b505050506040513d601f19601f8201168201806040525081019061149691906123d1565b9050600073ffffffffffffffffffffffffffffffffffffffff166001600083815260200190815260200160002060010160009054906101000a900473ffffffffffffffffffffffffffffffffffffffff1673ffffffffffffffffffffffffffffffffffffffff1603611405576060600060405180608001604052808481526020013373ffffffffffffffffffffffffffffffffffffffff16815260200186815260200183815250905080600160008581526020019081526020016000206000820151816000015560208201518160010160006101000a81548173ffffffffffffffffffffffffffffffffffffffff021916908373ffffffffffffffffffffffffffffffffffffffff16021790555060408201518160020190805190602001906115c0929190611850565b5060608201518160030190805190602001906115dd9291906118a9565b50905050600460003373ffffffffffffffffffffffffffffffffffffffff1673ffffffffffffffffffffffffffffffffffffffff1681526020019081526020016000208390806001815401808255809150506001900390600052602060002001600090919091909150556005839080600181540180825580915050600190039060005260206000200160009091909190915055829350505050919050565b6000606080600060016000868152602001908152602001600020604051806080016040529081600082015481526020016001820160009054906101000a900473ffffffffffffffffffffffffffffffffffffffff1673ffffffffffffffffffffffffffffffffffffffff1673ffffffffffffffffffffffffffffffffffffffff16815260200160028201805480602002602001604051908101604052809291908181526020016000905b828210156117d157838290600052602060002001805461174490612314565b80601f016020809104026020016040519081016040528092919081815260200182805461177090612314565b80156117bd5780601f10611792576101008083540402835291602001916117bd565b820191906000526020600020905b8154815290600101906020018083116117a057829003601f168201915b505050505081526020019060010190611725565b5050505081526020016003820180548060200260200160405190810160405280929190818152602001828054801561182857602002820191906000526020600020905b815481526020019060010190808311611814575b5050505050815250509050806020015181604001518260600151935093509350509193909250565b828054828255906000526020600020908101928215611898579160200282015b8281111561189757825182908161188791906125aa565b5091602001919060010190611870565b5b5090506118a591906118f6565b5090565b8280548282559060005260206000209081019282156118e5579160200282015b828111156118e45782518255916020019190600101906118c9565b5b5090506118f2919061191a565b5090565b5b80821115611916576000818161190d9190611937565b506001016118f7565b5090565b5b8082111561193357600081600090555060010161191b565b5090565b50805461194390612314565b6000825580601f106119555750611974565b601f016020900490600052602060002090810190611973919061191a565b5b50565b6000604051905090565b600080fd5b600080fd5b600073ffffffffffffffffffffffffffffffffffffffff82169050919050565b60006119b68261198b565b9050919050565b6119c6816119ab565b81146119d157600080fd5b50565b6000813590506119e3816119bd565b92915050565b6000602082840312156119ff576119fe611981565b5b6000611a0d848285016119d4565b91505092915050565b600081519050919050565b600082825260208201905092915050565b6000819050602082019050919050565b6000819050919050565b611a5581611a42565b82525050565b6000611a678383611a4c565b60208301905092915050565b6000602082019050919050565b6000611a8b82611a16565b611a958185611a21565b9350611aa083611a32565b8060005b83811015611ad1578151611ab88882611a5b565b9750611ac383611a73565b925050600181019050611aa4565b5085935050505092915050565b600081519050919050565b600082825260208201905092915050565b6000819050602082019050919050565b600081519050919050565b600082825260208201905092915050565b6000819050602082019050919050565b600081519050919050565b600082825260208201905092915050565b60005b83811015611b70578082015181840152602081019050611b55565b60008484015250505050565b6000601f19601f8301169050919050565b6000611b9882611b36565b611ba28185611b41565b9350611bb2818560208601611b52565b611bbb81611b7c565b840191505092915050565b6000611bd28383611b8d565b905092915050565b6000602082019050919050565b6000611bf282611b0a565b611bfc8185611b15565b935083602082028501611c0e85611b26565b8060005b85811015611c4a5784840389528151611c2b8582611bc6565b9450611c3683611bda565b925060208a01995050600181019050611c12565b50829750879550505050505092915050565b6000611c688383611be7565b905092915050565b6000602082019050919050565b6000611c8882611ade565b611c928185611ae9565b935083602082028501611ca485611afa565b8060005b85811015611ce05784840389528151611cc18582611c5c565b9450611ccc83611c70565b925060208a01995050600181019050611ca8565b50829750879550505050505092915050565b60006040820190508181036000830152611d0c8185611a80565b90508181036020830152611d208184611c7d565b90509392505050565b600081519050919050565b600082825260208201905092915050565b6000819050602082019050919050565b611d5e816119ab565b82525050565b6000611d708383611d55565b60208301905092915050565b6000602082019050919050565b6000611d9482611d29565b611d9e8185611d34565b9350611da983611d45565b8060005b83811015611dda578151611dc18882611d64565b9750611dcc83611d7c565b925050600181019050611dad565b5085935050505092915050565b60006060820190508181036000830152611e018186611a80565b90508181036020830152611e158185611d89565b90508181036040830152611e298184611c7d565b9050949350505050565b611e3c81611a42565b8114611e4757600080fd5b50565b600081359050611e5981611e33565b92915050565b600060208284031215611e7557611e74611981565b5b6000611e8384828501611e4a565b91505092915050565b611e95816119ab565b82525050565b600082825260208201905092915050565b6000611eb782611b0a565b611ec18185611e9b565b935083602082028501611ed385611b26565b8060005b85811015611f0f5784840389528151611ef08582611bc6565b9450611efb83611bda565b925060208a01995050600181019050611ed7565b50829750879550505050505092915050565b6000604082019050611f366000830185611e8c565b8181036020830152611f488184611eac565b90509392505050565b6000606082019050611f666000830186611e8c565b8181036020830152611f788185611eac565b90508181036040830152611f8c8184611a80565b9050949350505050565b60008115159050919050565b611fab81611f96565b82525050565b6000602082019050611fc66000830184611fa2565b92915050565b600080fd5b7f4e487b7100000000000000000000000000000000000000000000000000000000600052604160045260246000fd5b61200982611b7c565b810181811067ffffffffffffffff8211171561202857612027611fd1565b5b80604052505050565b600061203b611977565b90506120478282612000565b919050565b600067ffffffffffffffff82111561206757612066611fd1565b5b602082029050602081019050919050565b600080fd5b600080fd5b600067ffffffffffffffff82111561209d5761209c611fd1565b5b6120a682611b7c565b9050602081019050919050565b82818337600083830152505050565b60006120d56120d084612082565b612031565b9050828152602081018484840111156120f1576120f061207d565b5b6120fc8482856120b3565b509392505050565b600082601f83011261211957612118611fcc565b5b81356121298482602086016120c2565b91505092915050565b60006121456121408461204c565b612031565b9050808382526020820190506020840283018581111561216857612167612078565b5b835b818110156121af57803567ffffffffffffffff81111561218d5761218c611fcc565b5b80860161219a8982612104565b8552602085019450505060208101905061216a565b5050509392505050565b600082601f8301126121ce576121cd611fcc565b5b81356121de848260208601612132565b91505092915050565b600080604083850312156121fe576121fd611981565b5b600061220c85828601611e4a565b925050602083013567ffffffffffffffff81111561222d5761222c611986565b5b612239858286016121b9565b9150509250929050565b61224c81611a42565b82525050565b60006020820190506122676000830184612243565b92915050565b60006020828403121561228357612282611981565b5b600082013567ffffffffffffffff8111156122a1576122a0611986565b5b6122ad848285016121b9565b91505092915050565b7f4e487b7100000000000000000000000000000000000000000000000000000000600052603260045260246000fd5b7f4e487b7100000000000000000000000000000000000000000000000000000000600052602260045260246000fd5b6000600282049050600182168061232c57607f821691505b60208210810361233f5761233e6122e5565b5b50919050565b7f4e487b7100000000000000000000000000000000000000000000000000000000600052601160045260246000fd5b600061237f82611a42565b91507fffffffffffffffffffffffffffffffffffffffffffffffffffffffffffffffff82036123b1576123b0612345565b5b600182019050919050565b6000815190506123cb81611e33565b92915050565b6000602082840312156123e7576123e6611981565b5b60006123f5848285016123bc565b91505092915050565b60008190508160005260206000209050919050565b60006020601f8301049050919050565b600082821b905092915050565b6000600883026124607fffffffffffffffffffffffffffffffffffffffffffffffffffffffffffffffff82612423565b61246a8683612423565b95508019841693508086168417925050509392505050565b6000819050919050565b60006124a76124a261249d84611a42565b612482565b611a42565b9050919050565b6000819050919050565b6124c18361248c565b6124d56124cd826124ae565b848454612430565b825550505050565b600090565b6124ea6124dd565b6124f58184846124b8565b505050565b5b818110156125195761250e6000826124e2565b6001810190506124fb565b5050565b601f82111561255e5761252f816123fe565b61253884612413565b81016020851015612547578190505b61255b61255385612413565b8301826124fa565b50505b505050565b600082821c905092915050565b600061258160001984600802612563565b1980831691505092915050565b600061259a8383612570565b9150826002028217905092915050565b6125b382611b36565b67ffffffffffffffff8111156125cc576125cb611fd1565b5b6125d68254612314565b6125e182828561251d565b600060209050601f8311600181146126145760008415612602578287015190505b61260c858261258e565b865550612674565b601f198416612622866123fe565b60005b8281101561264a57848901518255600182019150602085019450602081019050612625565b868310156126675784890151612663601f891682612570565b8355505b6001600288020188555050505b50505050505056fea2646970667358221220725308cfb125fc780c8b8baa7f8b84065483ed066d7cb85cfd512e15cc47417264736f6c63430008120033608060405234801561001057600080fd5b506102bc806100206000396000f3fe608060405234801561001057600080fd5b506004361061002b5760003560e01c80636f8dcb3d14610030575b600080fd5b61003861004e565b6040516100459190610157565b60405180910390f35b600080429050600054811015610099576040517f08c379a0000000000000000000000000000000000000000000000000000000008152600401610090906101cf565b60405180910390fd5b60005481036100d457610fff600180546100b3919061021e565b166001819055506000600154036100cf576100cc61011f565b90505b6100dd565b60006001819055505b6000600a6101006100ee9190610252565b3073ffffffffffffffffffffffffffffffffffffffff16901c9050600154600c82901b601684901b17179250505090565b6000804290505b600054810361013757429050610126565b8091505090565b6000819050919050565b6101518161013e565b82525050565b600060208201905061016c6000830184610148565b92915050565b600082825260208201905092915050565b7f54696d657374616d70206d757374206e6f7420676f206261636b776172647300600082015250565b60006101b9601f83610172565b91506101c482610183565b602082019050919050565b600060208201905081810360008301526101e8816101ac565b9050919050565b7f4e487b7100000000000000000000000000000000000000000000000000000000600052601160045260246000fd5b60006102298261013e565b91506102348361013e565b925082820190508082111561024c5761024b6101ef565b5b92915050565b600061025d8261013e565b91506102688361013e565b92508282039050818111156102805761027f6101ef565b5b9291505056fea2646970667358221220b3f620676fc6645c725e0b358b60af102a0c5e47f73b1ddfe670141d5497b80f64736f6c63430008120033",
  "immutableReferences": {},
  "source": "// SPDX-License-Identifier: MIT\npragma solidity ^0.8.0; \nimport \"@openzeppelin/contracts/token/ERC20/ERC20.sol\";\nimport \"./Snowflake.sol\";\n\ncontract SurveyContract {\n\n\n    Snowflake IdGenerator;\n    constructor(){\n        IdGenerator =  new Snowflake();\n    }\n\n    // ------- Struct for holding surveys ---\n    struct survey {\n        uint256 id;\n\n        // uint amount;\n        address admin;\n        // address tokenAddress; // ERC20 Token\n\n        // Keep track of the available funds\n        // uint remainingAmount;\n\n        \n        bytes[] data;\n        uint256[] answers;\n    }\n\n    struct answer {\n        uint256 id;\n        address owner;\n        bytes[] data;\n    }\n\n    mapping(uint256 => survey) internal Surveys;\n    mapping(uint256 => answer) internal Answers;\n    mapping(address => uint256[]) internal UserAnswers; \n    mapping(address => uint256[]) internal UserSurveys;\n    \n    // uint public numSurveys = 0;\n    // mapping shortcoming\n    uint256[] internal surveyIndices;\n    uint256[] internal answerIndices;\n\n\n    // ----- Functions -------\n\n    function createAndSubmitSurvey(\n        // string memory _name,\n        // uint _amount,\n        // address _tokenAddress,\n        bytes[] memory data\n    )\n    public\n    returns (uint256)\n    {\n        // require(_tokenAddress == address(0) || msg.value == 0);\n\n        // // Transfer funds\n        // if (_tokenAddress != address(0)) {\n        //     // ERC20 token\n        //     ERC20 token = ERC20(_tokenAddress);\n        //     require(token.transferFrom(msg.sender, address(this), _amount));\n        // } else {\n        //     // Ether\n        //     require(_amount == msg.value);\n        //     require(msg.value > 0);\n        // }\n\n        // make sure id is unique\n        uint256 id;\n        do{ \n            id = IdGenerator.generateId();\n        }while(Surveys[id].admin != address(0));\n        \n\n        // create survey\n        uint256[] memory answers;\n        // survey memory s = survey(id, _amount, msg.sender, _tokenAddress,  _amount, data, answers);\n        survey memory s = survey(id, msg.sender, data, answers);\n\n        Surveys[id] = s;\n        UserSurveys[msg.sender].push(id);\n\n        surveyIndices.push(id);    \n        return id;\n    }\n\n    function createAndSubmitAnswer(uint256 questionId, bytes[] memory data) public returns(uint256) {\n\n        require(Surveys[questionId].admin != address(0));\n        \n        uint256 id;\n        do{ \n            id = IdGenerator.generateId();\n        }while(Answers[id].owner != address(0));\n\n        answer memory ans = answer(id, msg.sender, data);\n        Answers[id] = ans;\n        UserAnswers[msg.sender].push(id);\n        answerIndices.push(id);\n\n        Surveys[questionId].answers.push(id);\n        \n        return id; \n    }\n\n    function submitSurveyResponse(uint256 id)\n    public\n    payable\n    returns (bool)\n    {\n        survey memory s = Surveys[id];\n\n        // Check if surveyee is the survey owner\n        require(s.admin != msg.sender);\n\n        // Check if there's funding available to transfer to the surveyee\n        // require(s.amount != 0 && s.remainingAmount != 0);\n\n        // Check if the user had already submitted response\n        // require(!s.isSurveyee[msg.sender]);\n\n        // Transfer funds to the surveyee\n        // uint _value = s.amount / s.requiredResponses;\n\n        // if (s.tokenAddress != address(0)) {\n        //     // ERC20\n        //     ERC20 token = ERC20(s.tokenAddress);\n        //     require(token.transfer(msg.sender, _value));\n        // } else {\n        //     // ETH\n        //     msg.sender.transfer(_value);\n        // }\n\n        // Update survey data in the Surveys Map\n\n        // s.remainingAmount -= _value;\n\n        Surveys[id] = s;\n\n        return true;\n    }\n\n    // ------- getter functions -----------\n    function surveyInfo(uint256 id)\n    public\n    view\n    returns (address, bytes[] memory, uint256[] memory)\n    {\n        return _surveyInfo(id);\n    }\n\n    function _surveyInfo(uint256 id)\n    internal\n    view\n    returns (address, bytes[] memory, uint256[] memory)\n    {\n        survey memory s = Surveys[id];\n        return (s.admin, s.data, s.answers);\n    }\n\n    function getAllSurveys()\n    public\n    view\n    returns (uint256[] memory, address[] memory, bytes[][] memory)\n    {\n\n        \n        uint cnt = surveyIndices.length;\n        // Name, Shortid, Responses Count\n        uint256[] memory ids = new uint256[](cnt);\n        address[] memory owners = new address[](cnt);\n        bytes[][] memory datas = new bytes[][](cnt);\n\n        for (uint i = 0; i < cnt; i++) {\n            \n            survey memory s = Surveys[surveyIndices[i]];\n\n            ids[i] = s.id;\n            owners[i] = s.admin;\n            datas[i] = s.data;\n        }\n\n        return (ids, owners, datas);\n    }\n\n    function getUserSurveys(address _admin)\n    public\n    view\n    returns (uint256[] memory, bytes[][] memory)\n    {\n        uint surveysCount = UserSurveys[_admin].length;\n\n        // Name, Shortid, Responses Count\n        uint256[] memory ids = new uint256[](surveysCount);\n        bytes[][] memory datas = new bytes[][](surveysCount);\n\n        for (uint i = 0; i < surveysCount; i++) {\n            survey memory s = Surveys[UserSurveys[_admin][i]];\n\n            ids[i] = s.id;\n            datas[i] = s.data;\n        }\n\n        return (ids, datas);\n    }\n\n    function getAnswer(uint256 id)\n    public\n    view\n    returns (address, bytes[] memory)\n    {\n\n        // make sure the answer exists\n        require(Answers[id].owner != address(0));\n        answer memory ans = Answers[id];\n        return (ans.owner, ans.data);\n    }\n\n    function getUserAnswers(address _owner)\n    public\n    view\n    returns (uint256[] memory, bytes[][] memory)\n    {\n        uint cnt = UserAnswers[_owner].length;\n\n        // Name, Shortid, Responses Count\n        uint256[] memory ids = new uint256[](cnt);\n        bytes[][] memory datas = new bytes[][](cnt);\n\n        for (uint i = 0; i < cnt; i++) {\n            answer memory a = Answers[UserAnswers[_owner][i]];\n\n            ids[i] = a.id;\n            datas[i] = a.data;\n        }\n\n        return (ids, datas);\n    }\n\n    // ------- helper functions -----------\n\n    function strToMappingIndex(string memory str)\n    private\n    pure\n    returns (bytes32 result)\n    {\n        return keccak256(abi.encodePacked(str));\n    }\n\n    function stringTobytes(string memory source)\n    private\n    pure\n    returns (bytes32 result)\n    {\n        bytes memory tempEmptyStringTest = bytes(source);\n        if (tempEmptyStringTest.length == 0) {\n            return 0x0;\n        }\n\n        assembly {\n            result := mload(add(source, 32))\n        }\n\n        return result;\n    }\n\n}",
  "sourcePath": "/home/resyon/anonymous-survey/truffle/contracts/SurveyContract.sol",
  "compiler": {
    "name": "solc",
    "version": "0.8.18+commit.87f61d96.Emscripten.clang"
  },
  "schemaVersion": "3.4.13",
  "updatedAt": "2023-03-13T13:35:18.008Z",
  "networkType": "ethereum",
  "devdoc": {
    "kind": "dev",
    "methods": {},
    "version": 1
  },
  "userdoc": {
    "kind": "user",
    "methods": {},
    "version": 1
  }
}