{
  "contractName": "SurveyContract",
  "abi": [
    {
      "inputs": [],
      "stateMutability": "nonpayable",
      "type": "constructor"
    },
    {
      "inputs": [
        {
          "internalType": "bytes32[]",
          "name": "data",
          "type": "bytes32[]"
        }
      ],
      "name": "createAndSubmitSurvey",
      "outputs": [
        {
          "internalType": "uint256",
          "name": "",
          "type": "uint256"
        }
      ],
      "stateMutability": "payable",
      "type": "function",
      "payable": true
    },
    {
      "inputs": [
        {
          "internalType": "uint256",
          "name": "questionId",
          "type": "uint256"
        },
        {
          "internalType": "bytes32[]",
          "name": "data",
          "type": "bytes32[]"
        }
      ],
      "name": "createAndSubmitAnswer",
      "outputs": [
        {
          "internalType": "uint256",
          "name": "",
          "type": "uint256"
        }
      ],
      "stateMutability": "nonpayable",
      "type": "function"
    },
    {
      "inputs": [
        {
          "internalType": "uint256",
          "name": "id",
          "type": "uint256"
        }
      ],
      "name": "submitSurveyResponse",
      "outputs": [
        {
          "internalType": "bool",
          "name": "",
          "type": "bool"
        }
      ],
      "stateMutability": "payable",
      "type": "function",
      "payable": true
    },
    {
      "inputs": [
        {
          "internalType": "uint256",
          "name": "id",
          "type": "uint256"
        }
      ],
      "name": "surveyInfo",
      "outputs": [
        {
          "internalType": "address",
          "name": "",
          "type": "address"
        },
        {
          "internalType": "bytes32[]",
          "name": "",
          "type": "bytes32[]"
        },
        {
          "internalType": "uint256[]",
          "name": "",
          "type": "uint256[]"
        }
      ],
      "stateMutability": "view",
      "type": "function",
      "constant": true
    },
    {
      "inputs": [],
      "name": "getAllSurveys",
      "outputs": [
        {
          "internalType": "uint256[]",
          "name": "",
          "type": "uint256[]"
        },
        {
          "internalType": "address[]",
          "name": "",
          "type": "address[]"
        },
        {
          "internalType": "bytes32[][]",
          "name": "",
          "type": "bytes32[][]"
        }
      ],
      "stateMutability": "view",
      "type": "function",
      "constant": true
    },
    {
      "inputs": [
        {
          "internalType": "address",
          "name": "_admin",
          "type": "address"
        }
      ],
      "name": "getUserSurveys",
      "outputs": [
        {
          "internalType": "uint256[]",
          "name": "",
          "type": "uint256[]"
        },
        {
          "internalType": "bytes32[][]",
          "name": "",
          "type": "bytes32[][]"
        }
      ],
      "stateMutability": "view",
      "type": "function",
      "constant": true
    },
    {
      "inputs": [
        {
          "internalType": "uint256",
          "name": "id",
          "type": "uint256"
        }
      ],
      "name": "getAnswer",
      "outputs": [
        {
          "internalType": "address",
          "name": "",
          "type": "address"
        },
        {
          "internalType": "bytes32[]",
          "name": "",
          "type": "bytes32[]"
        }
      ],
      "stateMutability": "view",
      "type": "function",
      "constant": true
    },
    {
      "inputs": [
        {
          "internalType": "address",
          "name": "_owner",
          "type": "address"
        }
      ],
      "name": "getUserAnswers",
      "outputs": [
        {
          "internalType": "uint256[]",
          "name": "",
          "type": "uint256[]"
        },
        {
          "internalType": "bytes32[][]",
          "name": "",
          "type": "bytes32[][]"
        }
      ],
      "stateMutability": "view",
      "type": "function",
      "constant": true
    }
  ],
  "bytecode": "0x608060405234801561001057600080fd5b5060405161001d9061007e565b604051809103906000f080158015610039573d6000803e3d6000fd5b506000806101000a81548173ffffffffffffffffffffffffffffffffffffffff021916908373ffffffffffffffffffffffffffffffffffffffff16021790555061008b565b6102dc80611fd183390190565b611f378061009a6000396000f3fe60806040526004361061007b5760003560e01c8063b5ab58dc1161004e578063b5ab58dc14610158578063b7e1c25a14610196578063ce7d83d6146101d4578063d6e8e40a146102135761007b565b806327f0e745146100805780632af3d7ed146100b0578063510bb936146100ee5780637a1bc3751461012b575b600080fd5b61009a600480360381019061009591906117b4565b610243565b6040516100a79190611816565b60405180910390f35b3480156100bc57600080fd5b506100d760048036038101906100d2919061188f565b6104bd565b6040516100e5929190611afa565b60405180910390f35b3480156100fa57600080fd5b5061011560048036038101906101109190611b5d565b610750565b6040516101229190611816565b60405180910390f35b34801561013757600080fd5b50610140610a51565b60405161014f93929190611c77565b60405180910390f35b34801561016457600080fd5b5061017f600480360381019061017a9190611cc3565b610d67565b60405161018d929190611d6e565b60405180910390f35b3480156101a257600080fd5b506101bd60048036038101906101b8919061188f565b610ec8565b6040516101cb929190611afa565b60405180910390f35b3480156101e057600080fd5b506101fb60048036038101906101f69190611cc3565b6111b3565b60405161020a93929190611d9e565b60405180910390f35b61022d60048036038101906102289190611cc3565b6111ce565b60405161023a9190611dfe565b60405180910390f35b6000805b60008054906101000a900473ffffffffffffffffffffffffffffffffffffffff1673ffffffffffffffffffffffffffffffffffffffff16636f8dcb3d6040518163ffffffff1660e01b81526004016020604051808303816000875af11580156102b4573d6000803e3d6000fd5b505050506040513d601f19601f820116820180604052508101906102d89190611e2e565b9050600073ffffffffffffffffffffffffffffffffffffffff166001600083815260200190815260200160002060010160009054906101000a900473ffffffffffffffffffffffffffffffffffffffff1673ffffffffffffffffffffffffffffffffffffffff1614610247576060600060405180608001604052808481526020013373ffffffffffffffffffffffffffffffffffffffff16815260200186815260200183815250905080600160008581526020019081526020016000206000820151816000015560208201518160010160006101000a81548173ffffffffffffffffffffffffffffffffffffffff021916908373ffffffffffffffffffffffffffffffffffffffff160217905550604082015181600201908051906020019061040292919061153d565b50606082015181600301908051906020019061041f92919061158a565b50905050600460003373ffffffffffffffffffffffffffffffffffffffff1673ffffffffffffffffffffffffffffffffffffffff1681526020019081526020016000208390806001815401808255809150506001900390600052602060002001600090919091909150556005839080600181540180825580915050600190039060005260206000200160009091909190915055829350505050919050565b6060806000600360008573ffffffffffffffffffffffffffffffffffffffff1673ffffffffffffffffffffffffffffffffffffffff16815260200190815260200160002080549050905060008167ffffffffffffffff8111156105235761052261163b565b5b6040519080825280602002602001820160405280156105515781602001602082028036833780820191505090505b50905060008267ffffffffffffffff8111156105705761056f61163b565b5b6040519080825280602002602001820160405280156105a357816020015b606081526020019060019003908161058e5790505b50905060005b8381101561074157600060026000600360008b73ffffffffffffffffffffffffffffffffffffffff1673ffffffffffffffffffffffffffffffffffffffff168152602001908152602001600020848154811061060857610607611e5b565b5b90600052602060002001548152602001908152602001600020604051806060016040529081600082015481526020016001820160009054906101000a900473ffffffffffffffffffffffffffffffffffffffff1673ffffffffffffffffffffffffffffffffffffffff1673ffffffffffffffffffffffffffffffffffffffff168152602001600282018054806020026020016040519081016040528092919081815260200182805480156106db57602002820191906000526020600020905b8154815260200190600101908083116106c7575b505050505081525050905080600001518483815181106106fe576106fd611e5b565b5b602002602001018181525050806040015183838151811061072257610721611e5b565b5b602002602001018190525050808061073990611eb9565b9150506105a9565b50818194509450505050915091565b60008073ffffffffffffffffffffffffffffffffffffffff166001600085815260200190815260200160002060010160009054906101000a900473ffffffffffffffffffffffffffffffffffffffff1673ffffffffffffffffffffffffffffffffffffffff16036107c057600080fd5b60005b60008054906101000a900473ffffffffffffffffffffffffffffffffffffffff1673ffffffffffffffffffffffffffffffffffffffff16636f8dcb3d6040518163ffffffff1660e01b81526004016020604051808303816000875af1158015610830573d6000803e3d6000fd5b505050506040513d601f19601f820116820180604052508101906108549190611e2e565b9050600073ffffffffffffffffffffffffffffffffffffffff166002600083815260200190815260200160002060010160009054906101000a900473ffffffffffffffffffffffffffffffffffffffff1673ffffffffffffffffffffffffffffffffffffffff16146107c357600060405180606001604052808381526020013373ffffffffffffffffffffffffffffffffffffffff16815260200185815250905080600260008481526020019081526020016000206000820151816000015560208201518160010160006101000a81548173ffffffffffffffffffffffffffffffffffffffff021916908373ffffffffffffffffffffffffffffffffffffffff160217905550604082015181600201908051906020019061097692919061153d565b50905050600360003373ffffffffffffffffffffffffffffffffffffffff1673ffffffffffffffffffffffffffffffffffffffff168152602001908152602001600020829080600181540180825580915050600190039060005260206000200160009091909190915055600682908060018154018082558091505060019003906000526020600020016000909190919091505560016000868152602001908152602001600020600301829080600181540180825580915050600190039060005260206000200160009091909190915055819250505092915050565b60608060606000600580549050905060008167ffffffffffffffff811115610a7c57610a7b61163b565b5b604051908082528060200260200182016040528015610aaa5781602001602082028036833780820191505090505b50905060008267ffffffffffffffff811115610ac957610ac861163b565b5b604051908082528060200260200182016040528015610af75781602001602082028036833780820191505090505b50905060008367ffffffffffffffff811115610b1657610b1561163b565b5b604051908082528060200260200182016040528015610b4957816020015b6060815260200190600190039081610b345790505b50905060005b84811015610d545760006001600060058481548110610b7157610b70611e5b565b5b90600052602060002001548152602001908152602001600020604051806080016040529081600082015481526020016001820160009054906101000a900473ffffffffffffffffffffffffffffffffffffffff1673ffffffffffffffffffffffffffffffffffffffff1673ffffffffffffffffffffffffffffffffffffffff16815260200160028201805480602002602001604051908101604052809291908181526020018280548015610c4457602002820191906000526020600020905b815481526020019060010190808311610c30575b5050505050815260200160038201805480602002602001604051908101604052809291908181526020018280548015610c9c57602002820191906000526020600020905b815481526020019060010190808311610c88575b50505050508152505090508060000151858381518110610cbf57610cbe611e5b565b5b6020026020010181815250508060200151848381518110610ce357610ce2611e5b565b5b602002602001019073ffffffffffffffffffffffffffffffffffffffff16908173ffffffffffffffffffffffffffffffffffffffff16815250508060400151838381518110610d3557610d34611e5b565b5b6020026020010181905250508080610d4c90611eb9565b915050610b4f565b5082828296509650965050505050909192565b60006060600073ffffffffffffffffffffffffffffffffffffffff166002600085815260200190815260200160002060010160009054906101000a900473ffffffffffffffffffffffffffffffffffffffff1673ffffffffffffffffffffffffffffffffffffffff1603610dda57600080fd5b600060026000858152602001908152602001600020604051806060016040529081600082015481526020016001820160009054906101000a900473ffffffffffffffffffffffffffffffffffffffff1673ffffffffffffffffffffffffffffffffffffffff1673ffffffffffffffffffffffffffffffffffffffff16815260200160028201805480602002602001604051908101604052809291908181526020018280548015610ea957602002820191906000526020600020905b815481526020019060010190808311610e95575b5050505050815250509050806020015181604001519250925050915091565b6060806000600460008573ffffffffffffffffffffffffffffffffffffffff1673ffffffffffffffffffffffffffffffffffffffff16815260200190815260200160002080549050905060008167ffffffffffffffff811115610f2e57610f2d61163b565b5b604051908082528060200260200182016040528015610f5c5781602001602082028036833780820191505090505b50905060008267ffffffffffffffff811115610f7b57610f7a61163b565b5b604051908082528060200260200182016040528015610fae57816020015b6060815260200190600190039081610f995790505b50905060005b838110156111a457600060016000600460008b73ffffffffffffffffffffffffffffffffffffffff1673ffffffffffffffffffffffffffffffffffffffff168152602001908152602001600020848154811061101357611012611e5b565b5b90600052602060002001548152602001908152602001600020604051806080016040529081600082015481526020016001820160009054906101000a900473ffffffffffffffffffffffffffffffffffffffff1673ffffffffffffffffffffffffffffffffffffffff1673ffffffffffffffffffffffffffffffffffffffff168152602001600282018054806020026020016040519081016040528092919081815260200182805480156110e657602002820191906000526020600020905b8154815260200190600101908083116110d2575b505050505081526020016003820180548060200260200160405190810160405280929190818152602001828054801561113e57602002820191906000526020600020905b81548152602001906001019080831161112a575b5050505050815250509050806000015184838151811061116157611160611e5b565b5b602002602001018181525050806040015183838151811061118557611184611e5b565b5b602002602001018190525050808061119c90611eb9565b915050610fb4565b50818194509450505050915091565b60006060806111c1846113e9565b9250925092509193909250565b60008060016000848152602001908152602001600020604051806080016040529081600082015481526020016001820160009054906101000a900473ffffffffffffffffffffffffffffffffffffffff1673ffffffffffffffffffffffffffffffffffffffff1673ffffffffffffffffffffffffffffffffffffffff1681526020016002820180548060200260200160405190810160405280929190818152602001828054801561129e57602002820191906000526020600020905b81548152602001906001019080831161128a575b50505050508152602001600382018054806020026020016040519081016040528092919081815260200182805480156112f657602002820191906000526020600020905b8154815260200190600101908083116112e2575b50505050508152505090503373ffffffffffffffffffffffffffffffffffffffff16816020015173ffffffffffffffffffffffffffffffffffffffff160361133d57600080fd5b80600160008581526020019081526020016000206000820151816000015560208201518160010160006101000a81548173ffffffffffffffffffffffffffffffffffffffff021916908373ffffffffffffffffffffffffffffffffffffffff16021790555060408201518160020190805190602001906113be92919061153d565b5060608201518160030190805190602001906113db92919061158a565b509050506001915050919050565b6000606080600060016000868152602001908152602001600020604051806080016040529081600082015481526020016001820160009054906101000a900473ffffffffffffffffffffffffffffffffffffffff1673ffffffffffffffffffffffffffffffffffffffff1673ffffffffffffffffffffffffffffffffffffffff168152602001600282018054806020026020016040519081016040528092919081815260200182805480156114bd57602002820191906000526020600020905b8154815260200190600101908083116114a9575b505050505081526020016003820180548060200260200160405190810160405280929190818152602001828054801561151557602002820191906000526020600020905b815481526020019060010190808311611501575b5050505050815250509050806020015181604001518260600151935093509350509193909250565b828054828255906000526020600020908101928215611579579160200282015b8281111561157857825182559160200191906001019061155d565b5b50905061158691906115d7565b5090565b8280548282559060005260206000209081019282156115c6579160200282015b828111156115c55782518255916020019190600101906115aa565b5b5090506115d391906115f4565b5090565b5b808211156115f05760008160009055506001016115d8565b5090565b5b8082111561160d5760008160009055506001016115f5565b5090565b6000604051905090565b600080fd5b600080fd5b600080fd5b6000601f19601f8301169050919050565b7f4e487b7100000000000000000000000000000000000000000000000000000000600052604160045260246000fd5b6116738261162a565b810181811067ffffffffffffffff821117156116925761169161163b565b5b80604052505050565b60006116a5611611565b90506116b1828261166a565b919050565b600067ffffffffffffffff8211156116d1576116d061163b565b5b602082029050602081019050919050565b600080fd5b6000819050919050565b6116fa816116e7565b811461170557600080fd5b50565b600081359050611717816116f1565b92915050565b600061173061172b846116b6565b61169b565b90508083825260208201905060208402830185811115611753576117526116e2565b5b835b8181101561177c57806117688882611708565b845260208401935050602081019050611755565b5050509392505050565b600082601f83011261179b5761179a611625565b5b81356117ab84826020860161171d565b91505092915050565b6000602082840312156117ca576117c961161b565b5b600082013567ffffffffffffffff8111156117e8576117e7611620565b5b6117f484828501611786565b91505092915050565b6000819050919050565b611810816117fd565b82525050565b600060208201905061182b6000830184611807565b92915050565b600073ffffffffffffffffffffffffffffffffffffffff82169050919050565b600061185c82611831565b9050919050565b61186c81611851565b811461187757600080fd5b50565b60008135905061188981611863565b92915050565b6000602082840312156118a5576118a461161b565b5b60006118b38482850161187a565b91505092915050565b600081519050919050565b600082825260208201905092915050565b6000819050602082019050919050565b6118f1816117fd565b82525050565b600061190383836118e8565b60208301905092915050565b6000602082019050919050565b6000611927826118bc565b61193181856118c7565b935061193c836118d8565b8060005b8381101561196d57815161195488826118f7565b975061195f8361190f565b925050600181019050611940565b5085935050505092915050565b600081519050919050565b600082825260208201905092915050565b6000819050602082019050919050565b600081519050919050565b600082825260208201905092915050565b6000819050602082019050919050565b6119db816116e7565b82525050565b60006119ed83836119d2565b60208301905092915050565b6000602082019050919050565b6000611a11826119a6565b611a1b81856119b1565b9350611a26836119c2565b8060005b83811015611a57578151611a3e88826119e1565b9750611a49836119f9565b925050600181019050611a2a565b5085935050505092915050565b6000611a708383611a06565b905092915050565b6000602082019050919050565b6000611a908261197a565b611a9a8185611985565b935083602082028501611aac85611996565b8060005b85811015611ae85784840389528151611ac98582611a64565b9450611ad483611a78565b925060208a01995050600181019050611ab0565b50829750879550505050505092915050565b60006040820190508181036000830152611b14818561191c565b90508181036020830152611b288184611a85565b90509392505050565b611b3a816117fd565b8114611b4557600080fd5b50565b600081359050611b5781611b31565b92915050565b60008060408385031215611b7457611b7361161b565b5b6000611b8285828601611b48565b925050602083013567ffffffffffffffff811115611ba357611ba2611620565b5b611baf85828601611786565b9150509250929050565b600081519050919050565b600082825260208201905092915050565b6000819050602082019050919050565b611bee81611851565b82525050565b6000611c008383611be5565b60208301905092915050565b6000602082019050919050565b6000611c2482611bb9565b611c2e8185611bc4565b9350611c3983611bd5565b8060005b83811015611c6a578151611c518882611bf4565b9750611c5c83611c0c565b925050600181019050611c3d565b5085935050505092915050565b60006060820190508181036000830152611c91818661191c565b90508181036020830152611ca58185611c19565b90508181036040830152611cb98184611a85565b9050949350505050565b600060208284031215611cd957611cd861161b565b5b6000611ce784828501611b48565b91505092915050565b611cf981611851565b82525050565b600082825260208201905092915050565b6000611d1b826119a6565b611d258185611cff565b9350611d30836119c2565b8060005b83811015611d61578151611d4888826119e1565b9750611d53836119f9565b925050600181019050611d34565b5085935050505092915050565b6000604082019050611d836000830185611cf0565b8181036020830152611d958184611d10565b90509392505050565b6000606082019050611db36000830186611cf0565b8181036020830152611dc58185611d10565b90508181036040830152611dd9818461191c565b9050949350505050565b60008115159050919050565b611df881611de3565b82525050565b6000602082019050611e136000830184611def565b92915050565b600081519050611e2881611b31565b92915050565b600060208284031215611e4457611e4361161b565b5b6000611e5284828501611e19565b91505092915050565b7f4e487b7100000000000000000000000000000000000000000000000000000000600052603260045260246000fd5b7f4e487b7100000000000000000000000000000000000000000000000000000000600052601160045260246000fd5b6000611ec4826117fd565b91507fffffffffffffffffffffffffffffffffffffffffffffffffffffffffffffffff8203611ef657611ef5611e8a565b5b60018201905091905056fea2646970667358221220caa07b763f357fb9d64ab9d41a2a9693e9f202e2a0c9581792c5acbdca2b28cb64736f6c63430008120033608060405234801561001057600080fd5b506102bc806100206000396000f3fe608060405234801561001057600080fd5b506004361061002b5760003560e01c80636f8dcb3d14610030575b600080fd5b61003861004e565b6040516100459190610157565b60405180910390f35b600080429050600054811015610099576040517f08c379a0000000000000000000000000000000000000000000000000000000008152600401610090906101cf565b60405180910390fd5b60005481036100d457610fff600180546100b3919061021e565b166001819055506000600154036100cf576100cc61011f565b90505b6100dd565b60006001819055505b6000600a6101006100ee9190610252565b3073ffffffffffffffffffffffffffffffffffffffff16901c9050600154600c82901b601684901b17179250505090565b6000804290505b600054810361013757429050610126565b8091505090565b6000819050919050565b6101518161013e565b82525050565b600060208201905061016c6000830184610148565b92915050565b600082825260208201905092915050565b7f54696d657374616d70206d757374206e6f7420676f206261636b776172647300600082015250565b60006101b9601f83610172565b91506101c482610183565b602082019050919050565b600060208201905081810360008301526101e8816101ac565b9050919050565b7f4e487b7100000000000000000000000000000000000000000000000000000000600052601160045260246000fd5b60006102298261013e565b91506102348361013e565b925082820190508082111561024c5761024b6101ef565b5b92915050565b600061025d8261013e565b91506102688361013e565b92508282039050818111156102805761027f6101ef565b5b9291505056fea264697066735822122020c9567d2182e860de421a0901f1c7d0f060436829d0a04fa5db8c394a8996b164736f6c63430008120033",
  "immutableReferences": {},
  "source": "// SPDX-License-Identifier: MIT\npragma solidity ^0.8.0; \nimport \"@openzeppelin/contracts/token/ERC20/ERC20.sol\";\nimport \"./Snowflake.sol\";\n\ncontract SurveyContract {\n\n\n    Snowflake IdGenerator;\n    constructor(){\n        IdGenerator =  new Snowflake();\n    }\n\n    // ------- Struct for holding surveys ---\n    struct survey {\n        uint256 id;\n\n        // uint amount;\n        address admin;\n        // address tokenAddress; // ERC20 Token\n\n        // Keep track of the available funds\n        // uint remainingAmount;\n\n        \n        bytes32[] data;\n        uint256[] answers;\n    }\n\n    struct answer {\n        uint256 id;\n        address owner;\n        bytes32[] data;\n    }\n\n    mapping(uint256 => survey) internal Surveys;\n    mapping(uint256 => answer) internal Answers;\n    mapping(address => uint256[]) internal UserAnswers; \n    mapping(address => uint256[]) internal UserSurveys;\n    \n    // uint public numSurveys = 0;\n    // mapping shortcoming\n    uint256[] internal surveyIndices;\n    uint256[] internal answerIndices;\n\n\n    // ----- Functions -------\n\n    function createAndSubmitSurvey(\n        // string memory _name,\n        // uint _amount,\n        // address _tokenAddress,\n        bytes32[] memory data\n    )\n    public\n    payable\n    returns (uint256)\n    {\n        // require(_tokenAddress == address(0) || msg.value == 0);\n\n        // // Transfer funds\n        // if (_tokenAddress != address(0)) {\n        //     // ERC20 token\n        //     ERC20 token = ERC20(_tokenAddress);\n        //     require(token.transferFrom(msg.sender, address(this), _amount));\n        // } else {\n        //     // Ether\n        //     require(_amount == msg.value);\n        //     require(msg.value > 0);\n        // }\n\n        // make sure id is unique\n        uint256 id;\n        do{ \n            id = IdGenerator.generateId();\n        }while(Surveys[id].admin == address(0));\n        \n\n        // create survey\n        uint256[] memory answers;\n        // survey memory s = survey(id, _amount, msg.sender, _tokenAddress,  _amount, data, answers);\n        survey memory s = survey(id, msg.sender, data, answers);\n\n        Surveys[id] = s;\n        UserSurveys[msg.sender].push(id);\n\n        surveyIndices.push(id);    \n        return id;\n    }\n\n    function createAndSubmitAnswer(uint256 questionId, bytes32[] memory data) public returns(uint256) {\n\n        require(Surveys[questionId].admin != address(0));\n        \n        uint256 id;\n        do{ \n            id = IdGenerator.generateId();\n        }while(Answers[id].owner == address(0));\n\n        answer memory ans = answer(id, msg.sender, data);\n        Answers[id] = ans;\n        UserAnswers[msg.sender].push(id);\n        answerIndices.push(id);\n\n        Surveys[questionId].answers.push(id);\n        \n        return id; \n    }\n\n    function submitSurveyResponse(uint256 id)\n    public\n    payable\n    returns (bool)\n    {\n        survey memory s = Surveys[id];\n\n        // Check if surveyee is the survey owner\n        require(s.admin != msg.sender);\n\n        // Check if there's funding available to transfer to the surveyee\n        // require(s.amount != 0 && s.remainingAmount != 0);\n\n        // Check if the user had already submitted response\n        // require(!s.isSurveyee[msg.sender]);\n\n        // Transfer funds to the surveyee\n        // uint _value = s.amount / s.requiredResponses;\n\n        // if (s.tokenAddress != address(0)) {\n        //     // ERC20\n        //     ERC20 token = ERC20(s.tokenAddress);\n        //     require(token.transfer(msg.sender, _value));\n        // } else {\n        //     // ETH\n        //     msg.sender.transfer(_value);\n        // }\n\n        // Update survey data in the Surveys Map\n\n        // s.remainingAmount -= _value;\n\n        Surveys[id] = s;\n\n        return true;\n    }\n\n    // ------- getter functions -----------\n    function surveyInfo(uint256 id)\n    public\n    view\n    returns (address, bytes32[] memory, uint256[] memory)\n    {\n        return _surveyInfo(id);\n    }\n\n    function _surveyInfo(uint256 id)\n    internal\n    view\n    returns (address, bytes32[] memory, uint256[] memory)\n    {\n        survey memory s = Surveys[id];\n        return (s.admin, s.data, s.answers);\n    }\n\n    function getAllSurveys()\n    public\n    view\n    returns (uint256[] memory, address[] memory, bytes32[][] memory)\n    {\n\n        \n        uint cnt = surveyIndices.length;\n        // Name, Shortid, Responses Count\n        uint256[] memory ids = new uint256[](cnt);\n        address[] memory owners = new address[](cnt);\n        bytes32[][] memory datas = new bytes32[][](cnt);\n\n        for (uint i = 0; i < cnt; i++) {\n            \n            survey memory s = Surveys[surveyIndices[i]];\n\n            ids[i] = s.id;\n            owners[i] = s.admin;\n            datas[i] = s.data;\n        }\n\n        return (ids, owners, datas);\n    }\n\n    function getUserSurveys(address _admin)\n    public\n    view\n    returns (uint256[] memory, bytes32[][] memory)\n    {\n        uint surveysCount = UserSurveys[_admin].length;\n\n        // Name, Shortid, Responses Count\n        uint256[] memory ids = new uint256[](surveysCount);\n        bytes32[][] memory datas = new bytes32[][](surveysCount);\n\n        for (uint i = 0; i < surveysCount; i++) {\n            survey memory s = Surveys[UserSurveys[_admin][i]];\n\n            ids[i] = s.id;\n            datas[i] = s.data;\n        }\n\n        return (ids, datas);\n    }\n\n    function getAnswer(uint256 id)\n    public\n    view\n    returns (address, bytes32[] memory)\n    {\n\n        // make sure the answer exists\n        require(Answers[id].owner != address(0));\n        answer memory ans = Answers[id];\n        return (ans.owner, ans.data);\n    }\n\n    function getUserAnswers(address _owner)\n    public\n    view\n    returns (uint256[] memory, bytes32[][] memory)\n    {\n        uint cnt = UserAnswers[_owner].length;\n\n        // Name, Shortid, Responses Count\n        uint256[] memory ids = new uint256[](cnt);\n        bytes32[][] memory datas = new bytes32[][](cnt);\n\n        for (uint i = 0; i < cnt; i++) {\n            answer memory a = Answers[UserAnswers[_owner][i]];\n\n            ids[i] = a.id;\n            datas[i] = a.data;\n        }\n\n        return (ids, datas);\n    }\n\n    // ------- helper functions -----------\n\n    function strToMappingIndex(string memory str)\n    private\n    pure\n    returns (bytes32 result)\n    {\n        return keccak256(abi.encodePacked(str));\n    }\n\n    function stringToBytes32(string memory source)\n    private\n    pure\n    returns (bytes32 result)\n    {\n        bytes memory tempEmptyStringTest = bytes(source);\n        if (tempEmptyStringTest.length == 0) {\n            return 0x0;\n        }\n\n        assembly {\n            result := mload(add(source, 32))\n        }\n\n        return result;\n    }\n\n}\n",
  "sourcePath": "/home/resyon/anonymous-survey/truffle/contracts/SurveyContract.sol",
  "compiler": {
    "name": "solc",
    "version": "0.8.18+commit.87f61d96.Emscripten.clang"
  },
  "schemaVersion": "3.4.13",
  "updatedAt": "2023-03-12T12:41:01.247Z",
  "networkType": "ethereum",
  "devdoc": {
    "kind": "dev",
    "methods": {},
    "version": 1
  },
  "userdoc": {
    "kind": "user",
    "methods": {},
    "version": 1
  }
}